:100000000C942A000C943F000C943F000C943F0089
:100010000C943F000C943F000C943F000C943F0064
:100020000C943F000C943F000C943F000C943F0054
:100030000C943F000C943F000C943F000C943F0044
:100040000C943F000C943F000C943F000C943F0034
:100050000C943F0011241FBECFE5D8E0DEBFCDBF1A
:1000600010E0A0E6B0E0E8E7F1E002C005900D92F4
:10007000A636B107D9F70E9441000C94BA000C943F
:100080000000CF93DF9300D000D000D0CDB7DEB713
:1000900020E040E062E080E00E9469000E94B2003F
:1000A00086E0E0E6F0E0DE01119601900D928A957F
:1000B000E1F77E0187E0E80EF11C8E010F5F1F4F14
:1000C000F80181918F010E94AD000E151F05C1F747
:1000D000F4CF222319F0213019F004C0709803C026
:1000E000709A01C07098623061F018F4613031F09C
:1000F00011C0633049F0643051F00CC068986998C1
:100100000BC0689A699808C06898699A05C0689A8F
:10011000699A02C0689A6998882319F0813019F0A9
:1001200004C06D9803C06D9A01C06D98413049F0CC
:1001300028F0423049F0433051F00CC06B986A9877
:1001400008956B986A9A08956B9A6A9808956B9AC5
:100150006A9A08956B986A9808958FB9779BFECF35
:100160008FB10895BE98BD9ABC9ABF9AC49A6E9AF0
:080170006C9A0895F894FFCF8A
:06017800616468616D0086
:00000001FF
